:020000040000fa
:080000000002040000000000f2
:020000040000fa
:04000800e002000012
:020000040000fa
:04000c00e00200000e
:020000040000fa
:04001000e00200000a
:020000040000fa
:04001400e002000006
:020000040000fa
:04001800e002000002
:020000040000fa
:04001c00e0020000fe
:020000040000fa
:04002000e0020000fa
:020000040000fa
:04002400e0020000f6
:020000040000fa
:04002800e0020000f2
:020000040000fa
:04002c00e0020000ee
:020000040000fa
:04003000e0020000ea
:020000040000fa
:04003400e0020000e6
:020000040000fa
:04003800e0020000e2
:020000040000fa
:04003c00e0020000de
:020000040000fa
:04004000e0020000da
:020000040000fa
:04004400c8020000ee
:020000040000fa
:04004800e0020000d2
:020000040000fa
:04004c00e0020000ce
:020000040000fa
:04005000e0020000ca
:020000040000fa
:04005400e0020000c6
:020000040000fa
:04005800e0020000c2
:020000040000fa
:04005c00e0020000be
:020000040000fa
:04006000e0020000ba
:020000040000fa
:04006400e0020000b6
:020000040000fa
:04006800e0020000b2
:020000040000fa
:04006c00e0020000ae
:020000040000fa
:04007000e0020000aa
:020000040000fa
:04007400e0020000a6
:020000040000fa
:04007800e0020000a2
:020000040000fa
:04007c00e00200009e
:020000040000fa
:04008000e00200009a
:020000040000fa
:04008400e002000096
:020000040000fa
:04008800e002000092
:020000040000fa
:04008c00e00200008e
:020000040000fa
:04009000e00200008a
:020000040000fa
:04009400e002000086
:020000040000fa
:04009800e002000082
:020000040000fa
:04009c00e00200007e
:020000040000fa
:0400a000e00200007a
:020000040000fa
:0400a400e002000076
:020000040000fa
:0400a800e002000072
:020000040000fa
:0400ac00e00200006e
:020000040000fa
:0400b000e00200006a
:020000040000fa
:0400b400e002000066
:020000040000fa
:0400b800e002000062
:020000040000fa
:0400bc00e00200005e
:020000040000fa
:0400c000e00200005a
:020000040000fa
:0400c400e002000056
:020000040000fa
:0400c800e002000052
:020000040000fa
:0400cc00e00200004e
:020000040000fa
:0400d000e00200004a
:020000040000fa
:0400d400e002000046
:020000040000fa
:0400d800e002000042
:020000040000fa
:0400dc00e00200003e
:020000040000fa
:0400e000e00200003a
:020000040000fa
:0400e400e002000036
:020000040000fa
:0400e800e002000032
:020000040000fa
:0400ec00e00200002e
:020000040000fa
:0400f000e00200002a
:020000040000fa
:0400f400e002000026
:020000040000fa
:0400f800e002000022
:020000040000fa
:0400fc00e00200001e
:020000040000fa
:04010000e002000019
:020000040000fa
:04010400e002000015
:020000040000fa
:04010800e002000011
:020000040000fa
:04010c00e00200000d
:020000040000fa
:04011000e002000009
:020000040000fa
:04011400e002000005
:020000040000fa
:04011800e002000001
:020000040000fa
:04011c00e0020000fd
:020000040000fa
:04012000e0020000f9
:020000040000fa
:04012400e0020000f5
:020000040000fa
:04012800e0020000f1
:020000040000fa
:04012c00e0020000ed
:020000040000fa
:04013000e0020000e9
:020000040000fa
:04013400e0020000e5
:020000040000fa
:04020800e002000010
:020000040000fa
:04020c00e00200000c
:020000040000fa
:04021000e002000008
:020000040000fa
:04021400e002000004
:020000040000fa
:04021800e002000000
:020000040000fa
:04021c00e0020000fc
:020000040000fa
:04022000e0020000f8
:020000040000fa
:04022400e0020000f4
:020000040000fa
:04022800e0020000f0
:020000040000fa
:04022c00e0020000ec
:020000040000fa
:04023000e0020000e8
:020000040000fa
:04023400e0020000e4
:020000040000fa
:04023800e0020000e0
:020000040000fa
:04023c00e0020000dc
:020000040000fa
:04024000e0020000d8
:020000040000fa
:04024400c8020000ec
:020000040000fa
:04024800e0020000d0
:020000040000fa
:04024c00e0020000cc
:020000040000fa
:04025000e0020000c8
:020000040000fa
:04025400e0020000c4
:020000040000fa
:04025800e0020000c0
:020000040000fa
:04025c00e0020000bc
:020000040000fa
:04026000e0020000b8
:020000040000fa
:04026400e0020000b4
:020000040000fa
:04026800e0020000b0
:020000040000fa
:04026c00e0020000ac
:020000040000fa
:04027000e0020000a8
:020000040000fa
:04027400e0020000a4
:020000040000fa
:04027800e0020000a0
:020000040000fa
:04027c00e00200009c
:020000040000fa
:04028000e002000098
:020000040000fa
:04028400e002000094
:020000040000fa
:04028800e002000090
:020000040000fa
:04028c00e00200008c
:020000040000fa
:04029000e002000088
:020000040000fa
:04029400e002000084
:020000040000fa
:04029800e002000080
:020000040000fa
:04029c00e00200007c
:020000040000fa
:0402a000e002000078
:020000040000fa
:0402a400e002000074
:020000040000fa
:0402a800e002000070
:020000040000fa
:0402ac00e00200006c
:020000040000fa
:0402b000e002000068
:020000040000fa
:0402b400e002000064
:020000040000fa
:0402b800e002000060
:020000040000fa
:0402bc00e00200005c
:020000040000fa
:0402c000e002000058
:020000040000fa
:0402c400e002000054
:020000040000fa
:0402c800e002000050
:020000040000fa
:0402cc00e00200004c
:020000040000fa
:0402d000e002000048
:020000040000fa
:0402d400e002000044
:020000040000fa
:0402d800e002000040
:020000040000fa
:0402dc00e00200003c
:020000040000fa
:0402e000e002000038
:020000040000fa
:0402e400e002000034
:020000040000fa
:0402e800e002000030
:020000040000fa
:0402ec00e00200002c
:020000040000fa
:0402f000e002000028
:020000040000fa
:0402f400e002000024
:020000040000fa
:0402f800e002000020
:020000040000fa
:0402fc00e00200001c
:020000040000fa
:04030000e002000017
:020000040000fa
:04030400e002000013
:020000040000fa
:04030800e00200000f
:020000040000fa
:04030c00e00200000b
:020000040000fa
:04031000e002000007
:020000040000fa
:04031400e002000003
:020000040000fa
:04031800e0020000ff
:020000040000fa
:04031c00e0020000fb
:020000040000fa
:04032000e0020000f7
:020000040000fa
:04032400e0020000f3
:020000040000fa
:04032800e0020000ef
:020000040000fa
:04032c00e0020000eb
:020000040000fa
:04033000e0020000e7
:020000040000fa
:04033400e0020000e3
:020000040000fa
:100400002f8020000e7f22000e01880000000000d7
:10041000000020000000e000020032000001200087
:100420002002880014000700670007000000e000b9
:1004300003003a00003120000100200002003700d4
:100440000000200001002000810f70000100320038
:1004500014000700000020000000e000020032004d
:100460000000020000000000e602020000000000a0
:100470000040da000000fe004440a9000000200017
:100480000000e0000300320000002000a00188000e
:100490004440a800000006008a1f78008b1f7800e7
:1004a0000000060091018800800478000000eb0045
:1004b0001a003700e284440032a0b4009905ba0063
:1004c000e284440032a0b4009906ba00e2844400f9
:1004d00032a0b4000006eb00476fde00fd07b2005b
:1004e000636ce10003003a00ebff07000000eb0043
:1004f0000a003700606ce10004003a00005deb0088
:100500008b05e900fdff3e00040037006168e10053
:10051000010032000086eb000b00070019c7ba008b
:100520001905ba000e04e00003003a000a00e000da
:10053000e0ff3a0000000600fe07b2009e018800be
:100540008a047800f5ff3700395dba008b05e900b1
:100550000c003200295dba008b05e900080032006a
:100560000c00e00003003a00e284440032a0b40032
:10057000f5ff370019ddba008b05e900faff3a00f4
:100580008904e800e184440032a0b40000000600c1
:10059000801f78003400f80000002000a0018800cf
:1005a0000000fa0000408000900c880084e0a90060
:1005b0000080fa003400f9004f0078000040060087
:0c05c0000040da000000fe000000050012
:020000040000fa
:1005cc000000fa009621ef0000642000a00c8800c7
:1005dc009661a80060002000b00c8800d262a900cf
:1005ec00d622ef00f070220060088800000028007e
:1005fc008008880031058000f0ff28000080600032
:10060c0000e0a0003005880084e0a90094e0a80078
:04061c00ffff3700a5
:020000040000fa
:100620000008000002000000020000002823000073
:0406300000000000c6
:020000040000fa
:020000040002f8
:04aff800bff900009d
:020000040000fa
:020000040002f8
:04affc007f3f000093
:00000001FF
